{
  "_format": "hh-sol-artifact-1",
  "contractName": "BlockVote",
  "sourceName": "contracts/blockVote.sol",
  "abi": [
    {
      "inputs": [],
      "stateMutability": "nonpayable",
      "type": "constructor"
    },
    {
      "anonymous": false,
      "inputs": [
        {
          "indexed": true,
          "internalType": "address",
          "name": "owner",
          "type": "address"
        },
        {
          "indexed": true,
          "internalType": "address",
          "name": "spender",
          "type": "address"
        },
        {
          "indexed": false,
          "internalType": "uint256",
          "name": "value",
          "type": "uint256"
        }
      ],
      "name": "Approval",
      "type": "event"
    },
    {
      "anonymous": false,
      "inputs": [
        {
          "indexed": true,
          "internalType": "address",
          "name": "from",
          "type": "address"
        },
        {
          "indexed": true,
          "internalType": "address",
          "name": "to",
          "type": "address"
        },
        {
          "indexed": false,
          "internalType": "uint256",
          "name": "value",
          "type": "uint256"
        }
      ],
      "name": "Transfer",
      "type": "event"
    },
    {
      "inputs": [
        {
          "internalType": "address",
          "name": "owner",
          "type": "address"
        },
        {
          "internalType": "address",
          "name": "spender",
          "type": "address"
        }
      ],
      "name": "allowance",
      "outputs": [
        {
          "internalType": "uint256",
          "name": "",
          "type": "uint256"
        }
      ],
      "stateMutability": "view",
      "type": "function"
    },
    {
      "inputs": [
        {
          "internalType": "address",
          "name": "spender",
          "type": "address"
        },
        {
          "internalType": "uint256",
          "name": "amount",
          "type": "uint256"
        }
      ],
      "name": "approve",
      "outputs": [
        {
          "internalType": "bool",
          "name": "",
          "type": "bool"
        }
      ],
      "stateMutability": "nonpayable",
      "type": "function"
    },
    {
      "inputs": [
        {
          "internalType": "address",
          "name": "account",
          "type": "address"
        }
      ],
      "name": "balanceOf",
      "outputs": [
        {
          "internalType": "uint256",
          "name": "",
          "type": "uint256"
        }
      ],
      "stateMutability": "view",
      "type": "function"
    },
    {
      "inputs": [
        {
          "internalType": "uint256",
          "name": "amount",
          "type": "uint256"
        }
      ],
      "name": "burnTokens",
      "outputs": [],
      "stateMutability": "nonpayable",
      "type": "function"
    },
    {
      "inputs": [],
      "name": "currentOwner",
      "outputs": [
        {
          "internalType": "address",
          "name": "",
          "type": "address"
        }
      ],
      "stateMutability": "view",
      "type": "function"
    },
    {
      "inputs": [],
      "name": "decimals",
      "outputs": [
        {
          "internalType": "uint8",
          "name": "",
          "type": "uint8"
        }
      ],
      "stateMutability": "view",
      "type": "function"
    },
    {
      "inputs": [
        {
          "internalType": "address",
          "name": "spender",
          "type": "address"
        },
        {
          "internalType": "uint256",
          "name": "subtractedValue",
          "type": "uint256"
        }
      ],
      "name": "decreaseAllowance",
      "outputs": [
        {
          "internalType": "bool",
          "name": "",
          "type": "bool"
        }
      ],
      "stateMutability": "nonpayable",
      "type": "function"
    },
    {
      "inputs": [
        {
          "internalType": "address",
          "name": "spender",
          "type": "address"
        },
        {
          "internalType": "uint256",
          "name": "addedValue",
          "type": "uint256"
        }
      ],
      "name": "increaseAllowance",
      "outputs": [
        {
          "internalType": "bool",
          "name": "",
          "type": "bool"
        }
      ],
      "stateMutability": "nonpayable",
      "type": "function"
    },
    {
      "inputs": [
        {
          "internalType": "address",
          "name": "account",
          "type": "address"
        },
        {
          "internalType": "uint256",
          "name": "amount",
          "type": "uint256"
        }
      ],
      "name": "mintTokens",
      "outputs": [],
      "stateMutability": "nonpayable",
      "type": "function"
    },
    {
      "inputs": [],
      "name": "name",
      "outputs": [
        {
          "internalType": "string",
          "name": "",
          "type": "string"
        }
      ],
      "stateMutability": "view",
      "type": "function"
    },
    {
      "inputs": [],
      "name": "owner",
      "outputs": [
        {
          "internalType": "address",
          "name": "",
          "type": "address"
        }
      ],
      "stateMutability": "view",
      "type": "function"
    },
    {
      "inputs": [],
      "name": "symbol",
      "outputs": [
        {
          "internalType": "string",
          "name": "",
          "type": "string"
        }
      ],
      "stateMutability": "view",
      "type": "function"
    },
    {
      "inputs": [],
      "name": "totalSupply",
      "outputs": [
        {
          "internalType": "uint256",
          "name": "",
          "type": "uint256"
        }
      ],
      "stateMutability": "view",
      "type": "function"
    },
    {
      "inputs": [],
      "name": "totalTokenAmount",
      "outputs": [
        {
          "internalType": "uint256",
          "name": "",
          "type": "uint256"
        }
      ],
      "stateMutability": "view",
      "type": "function"
    },
    {
      "inputs": [],
      "name": "totalTokenSupply",
      "outputs": [
        {
          "internalType": "uint256",
          "name": "",
          "type": "uint256"
        }
      ],
      "stateMutability": "view",
      "type": "function"
    },
    {
      "inputs": [
        {
          "internalType": "address",
          "name": "to",
          "type": "address"
        },
        {
          "internalType": "uint256",
          "name": "amount",
          "type": "uint256"
        }
      ],
      "name": "transfer",
      "outputs": [
        {
          "internalType": "bool",
          "name": "",
          "type": "bool"
        }
      ],
      "stateMutability": "nonpayable",
      "type": "function"
    },
    {
      "inputs": [
        {
          "internalType": "address",
          "name": "from",
          "type": "address"
        },
        {
          "internalType": "address",
          "name": "to",
          "type": "address"
        },
        {
          "internalType": "uint256",
          "name": "amount",
          "type": "uint256"
        }
      ],
      "name": "transferFrom",
      "outputs": [
        {
          "internalType": "bool",
          "name": "",
          "type": "bool"
        }
      ],
      "stateMutability": "nonpayable",
      "type": "function"
    },
    {
      "inputs": [
        {
          "internalType": "address",
          "name": "account",
          "type": "address"
        }
      ],
      "name": "transferOwnership",
      "outputs": [],
      "stateMutability": "nonpayable",
      "type": "function"
    },
    {
      "inputs": [],
      "name": "userBalance",
      "outputs": [
        {
          "internalType": "uint256",
          "name": "",
          "type": "uint256"
        }
      ],
      "stateMutability": "view",
      "type": "function"
    }
  ],
  "bytecode": "0x608060405260006006553480156200001657600080fd5b506040518060400160405280601081526020017f426c6f636b20566f746520546f6b656e000000000000000000000000000000008152506040518060400160405280600381526020017f425654000000000000000000000000000000000000000000000000000000000081525081600390805190602001906200009b929190620000fe565b508060049080519060200190620000b4929190620000fe565b50505033600560006101000a81548173ffffffffffffffffffffffffffffffffffffffff021916908373ffffffffffffffffffffffffffffffffffffffff16021790555062000213565b8280546200010c90620001ae565b90600052602060002090601f0160209004810192826200013057600085556200017c565b82601f106200014b57805160ff19168380011785556200017c565b828001600101855582156200017c579182015b828111156200017b5782518255916020019190600101906200015e565b5b5090506200018b91906200018f565b5090565b5b80821115620001aa57600081600090555060010162000190565b5090565b60006002820490506001821680620001c757607f821691505b60208210811415620001de57620001dd620001e4565b5b50919050565b7f4e487b7100000000000000000000000000000000000000000000000000000000600052602260045260246000fd5b611c7680620002236000396000f3fe608060405234801561001057600080fd5b50600436106101215760003560e01c806370a08231116100ad578063b387ef9211610071578063b387ef9214610334578063bf15276514610352578063dd62ed3e14610370578063f0dda65c146103a0578063f2fde38b146103bc57610121565b806370a08231146102685780638da5cb5b1461029857806395d89b41146102b6578063a457c2d7146102d4578063a9059cbb1461030457610121565b80631ca8b6cb116100f45780631ca8b6cb146101b057806323b872dd146101ce578063313ce567146101fe578063395093511461021c5780636d1b229d1461024c57610121565b80630337b3aa1461012657806306fdde0314610144578063095ea7b31461016257806318160ddd14610192575b600080fd5b61012e6103d8565b60405161013b919061171a565b60405180910390f35b61014c6103e2565b6040516101599190611598565b60405180910390f35b61017c60048036038101906101779190611307565b610474565b604051610189919061157d565b60405180910390f35b61019a610497565b6040516101a7919061171a565b60405180910390f35b6101b86104a1565b6040516101c5919061171a565b60405180910390f35b6101e860048036038101906101e391906112b8565b6104a7565b6040516101f5919061157d565b60405180910390f35b6102066104d6565b6040516102139190611735565b60405180910390f35b61023660048036038101906102319190611307565b6104df565b604051610243919061157d565b60405180910390f35b61026660048036038101906102619190611343565b610589565b005b610282600480360381019061027d9190611253565b6105af565b60405161028f919061171a565b60405180910390f35b6102a06105f7565b6040516102ad9190611562565b60405180910390f35b6102be61061d565b6040516102cb9190611598565b60405180910390f35b6102ee60048036038101906102e99190611307565b6106af565b6040516102fb919061157d565b60405180910390f35b61031e60048036038101906103199190611307565b610799565b60405161032b919061157d565b60405180910390f35b61033c6107bc565b6040516103499190611562565b60405180910390f35b61035a6107e6565b604051610367919061171a565b60405180910390f35b61038a6004803603810190610385919061127c565b6107f6565b604051610397919061171a565b60405180910390f35b6103ba60048036038101906103b59190611307565b61087d565b005b6103d660048036038101906103d19190611253565b610934565b005b6000600654905090565b6060600380546103f19061187e565b80601f016020809104026020016040519081016040528092919081815260200182805461041d9061187e565b801561046a5780601f1061043f5761010080835404028352916020019161046a565b820191906000526020600020905b81548152906001019060200180831161044d57829003601f168201915b5050505050905090565b60008061047f610a08565b905061048c818585610a10565b600191505092915050565b6000600254905090565b60065481565b6000806104b2610a08565b90506104bf858285610bdb565b6104ca858585610c67565b60019150509392505050565b60006012905090565b6000806104ea610a08565b905061057e818585600160008673ffffffffffffffffffffffffffffffffffffffff1673ffffffffffffffffffffffffffffffffffffffff16815260200190815260200160002060008973ffffffffffffffffffffffffffffffffffffffff1673ffffffffffffffffffffffffffffffffffffffff16815260200190815260200160002054610579919061176c565b610a10565b600191505092915050565b6105933382610ee8565b80600660008282546105a591906117c2565b9250508190555050565b60008060008373ffffffffffffffffffffffffffffffffffffffff1673ffffffffffffffffffffffffffffffffffffffff168152602001908152602001600020549050919050565b600560009054906101000a900473ffffffffffffffffffffffffffffffffffffffff1681565b60606004805461062c9061187e565b80601f01602080910402602001604051908101604052809291908181526020018280546106589061187e565b80156106a55780601f1061067a576101008083540402835291602001916106a5565b820191906000526020600020905b81548152906001019060200180831161068857829003601f168201915b5050505050905090565b6000806106ba610a08565b90506000600160008373ffffffffffffffffffffffffffffffffffffffff1673ffffffffffffffffffffffffffffffffffffffff16815260200190815260200160002060008673ffffffffffffffffffffffffffffffffffffffff1673ffffffffffffffffffffffffffffffffffffffff16815260200190815260200160002054905083811015610780576040517f08c379a0000000000000000000000000000000000000000000000000000000008152600401610777906116da565b60405180910390fd5b61078d8286868403610a10565b60019250505092915050565b6000806107a4610a08565b90506107b1818585610c67565b600191505092915050565b6000600560009054906101000a900473ffffffffffffffffffffffffffffffffffffffff16905090565b60006107f1336105af565b905090565b6000600160008473ffffffffffffffffffffffffffffffffffffffff1673ffffffffffffffffffffffffffffffffffffffff16815260200190815260200160002060008373ffffffffffffffffffffffffffffffffffffffff1673ffffffffffffffffffffffffffffffffffffffff16815260200190815260200160002054905092915050565b600560009054906101000a900473ffffffffffffffffffffffffffffffffffffffff1673ffffffffffffffffffffffffffffffffffffffff163373ffffffffffffffffffffffffffffffffffffffff161461090d576040517f08c379a0000000000000000000000000000000000000000000000000000000008152600401610904906116ba565b60405180910390fd5b61091782826110bf565b8060066000828254610929919061176c565b925050819055505050565b600560009054906101000a900473ffffffffffffffffffffffffffffffffffffffff1673ffffffffffffffffffffffffffffffffffffffff163373ffffffffffffffffffffffffffffffffffffffff16146109c4576040517f08c379a00000000000000000000000000000000000000000000000000000000081526004016109bb906116ba565b60405180910390fd5b80600560006101000a81548173ffffffffffffffffffffffffffffffffffffffff021916908373ffffffffffffffffffffffffffffffffffffffff16021790555050565b600033905090565b600073ffffffffffffffffffffffffffffffffffffffff168373ffffffffffffffffffffffffffffffffffffffff161415610a80576040517f08c379a0000000000000000000000000000000000000000000000000000000008152600401610a779061169a565b60405180910390fd5b600073ffffffffffffffffffffffffffffffffffffffff168273ffffffffffffffffffffffffffffffffffffffff161415610af0576040517f08c379a0000000000000000000000000000000000000000000000000000000008152600401610ae7906115fa565b60405180910390fd5b80600160008573ffffffffffffffffffffffffffffffffffffffff1673ffffffffffffffffffffffffffffffffffffffff16815260200190815260200160002060008473ffffffffffffffffffffffffffffffffffffffff1673ffffffffffffffffffffffffffffffffffffffff168152602001908152602001600020819055508173ffffffffffffffffffffffffffffffffffffffff168373ffffffffffffffffffffffffffffffffffffffff167f8c5be1e5ebec7d5bd14f71427d1e84f3dd0314c0f7b2291e5b200ac8c7c3b92583604051610bce919061171a565b60405180910390a3505050565b6000610be784846107f6565b90507fffffffffffffffffffffffffffffffffffffffffffffffffffffffffffffffff8114610c615781811015610c53576040517f08c379a0000000000000000000000000000000000000000000000000000000008152600401610c4a9061161a565b60405180910390fd5b610c608484848403610a10565b5b50505050565b600073ffffffffffffffffffffffffffffffffffffffff168373ffffffffffffffffffffffffffffffffffffffff161415610cd7576040517f08c379a0000000000000000000000000000000000000000000000000000000008152600401610cce9061167a565b60405180910390fd5b600073ffffffffffffffffffffffffffffffffffffffff168273ffffffffffffffffffffffffffffffffffffffff161415610d47576040517f08c379a0000000000000000000000000000000000000000000000000000000008152600401610d3e906115ba565b60405180910390fd5b610d5283838361121f565b60008060008573ffffffffffffffffffffffffffffffffffffffff1673ffffffffffffffffffffffffffffffffffffffff16815260200190815260200160002054905081811015610dd8576040517f08c379a0000000000000000000000000000000000000000000000000000000008152600401610dcf9061163a565b60405180910390fd5b8181036000808673ffffffffffffffffffffffffffffffffffffffff1673ffffffffffffffffffffffffffffffffffffffff16815260200190815260200160002081905550816000808573ffffffffffffffffffffffffffffffffffffffff1673ffffffffffffffffffffffffffffffffffffffff1681526020019081526020016000206000828254610e6b919061176c565b925050819055508273ffffffffffffffffffffffffffffffffffffffff168473ffffffffffffffffffffffffffffffffffffffff167fddf252ad1be2c89b69c2b068fc378daa952ba7f163c4a11628f55a4df523b3ef84604051610ecf919061171a565b60405180910390a3610ee2848484611224565b50505050565b600073ffffffffffffffffffffffffffffffffffffffff168273ffffffffffffffffffffffffffffffffffffffff161415610f58576040517f08c379a0000000000000000000000000000000000000000000000000000000008152600401610f4f9061165a565b60405180910390fd5b610f648260008361121f565b60008060008473ffffffffffffffffffffffffffffffffffffffff1673ffffffffffffffffffffffffffffffffffffffff16815260200190815260200160002054905081811015610fea576040517f08c379a0000000000000000000000000000000000000000000000000000000008152600401610fe1906115da565b60405180910390fd5b8181036000808573ffffffffffffffffffffffffffffffffffffffff1673ffffffffffffffffffffffffffffffffffffffff16815260200190815260200160002081905550816002600082825461104191906117c2565b92505081905550600073ffffffffffffffffffffffffffffffffffffffff168373ffffffffffffffffffffffffffffffffffffffff167fddf252ad1be2c89b69c2b068fc378daa952ba7f163c4a11628f55a4df523b3ef846040516110a6919061171a565b60405180910390a36110ba83600084611224565b505050565b600073ffffffffffffffffffffffffffffffffffffffff168273ffffffffffffffffffffffffffffffffffffffff16141561112f576040517f08c379a0000000000000000000000000000000000000000000000000000000008152600401611126906116fa565b60405180910390fd5b61113b6000838361121f565b806002600082825461114d919061176c565b92505081905550806000808473ffffffffffffffffffffffffffffffffffffffff1673ffffffffffffffffffffffffffffffffffffffff16815260200190815260200160002060008282546111a2919061176c565b925050819055508173ffffffffffffffffffffffffffffffffffffffff16600073ffffffffffffffffffffffffffffffffffffffff167fddf252ad1be2c89b69c2b068fc378daa952ba7f163c4a11628f55a4df523b3ef83604051611207919061171a565b60405180910390a361121b60008383611224565b5050565b505050565b505050565b60008135905061123881611c12565b92915050565b60008135905061124d81611c29565b92915050565b60006020828403121561126557600080fd5b600061127384828501611229565b91505092915050565b6000806040838503121561128f57600080fd5b600061129d85828601611229565b92505060206112ae85828601611229565b9150509250929050565b6000806000606084860312156112cd57600080fd5b60006112db86828701611229565b93505060206112ec86828701611229565b92505060406112fd8682870161123e565b9150509250925092565b6000806040838503121561131a57600080fd5b600061132885828601611229565b92505060206113398582860161123e565b9150509250929050565b60006020828403121561135557600080fd5b60006113638482850161123e565b91505092915050565b611375816117f6565b82525050565b61138481611808565b82525050565b600061139582611750565b61139f818561175b565b93506113af81856020860161184b565b6113b88161190e565b840191505092915050565b60006113d060238361175b565b91506113db8261191f565b604082019050919050565b60006113f360228361175b565b91506113fe8261196e565b604082019050919050565b600061141660228361175b565b9150611421826119bd565b604082019050919050565b6000611439601d8361175b565b915061144482611a0c565b602082019050919050565b600061145c60268361175b565b915061146782611a35565b604082019050919050565b600061147f60218361175b565b915061148a82611a84565b604082019050919050565b60006114a260258361175b565b91506114ad82611ad3565b604082019050919050565b60006114c560248361175b565b91506114d082611b22565b604082019050919050565b60006114e8600d8361175b565b91506114f382611b71565b602082019050919050565b600061150b60258361175b565b915061151682611b9a565b604082019050919050565b600061152e601f8361175b565b915061153982611be9565b602082019050919050565b61154d81611834565b82525050565b61155c8161183e565b82525050565b6000602082019050611577600083018461136c565b92915050565b6000602082019050611592600083018461137b565b92915050565b600060208201905081810360008301526115b2818461138a565b905092915050565b600060208201905081810360008301526115d3816113c3565b9050919050565b600060208201905081810360008301526115f3816113e6565b9050919050565b6000602082019050818103600083015261161381611409565b9050919050565b600060208201905081810360008301526116338161142c565b9050919050565b600060208201905081810360008301526116538161144f565b9050919050565b6000602082019050818103600083015261167381611472565b9050919050565b6000602082019050818103600083015261169381611495565b9050919050565b600060208201905081810360008301526116b3816114b8565b9050919050565b600060208201905081810360008301526116d3816114db565b9050919050565b600060208201905081810360008301526116f3816114fe565b9050919050565b6000602082019050818103600083015261171381611521565b9050919050565b600060208201905061172f6000830184611544565b92915050565b600060208201905061174a6000830184611553565b92915050565b600081519050919050565b600082825260208201905092915050565b600061177782611834565b915061178283611834565b9250827fffffffffffffffffffffffffffffffffffffffffffffffffffffffffffffffff038211156117b7576117b66118b0565b5b828201905092915050565b60006117cd82611834565b91506117d883611834565b9250828210156117eb576117ea6118b0565b5b828203905092915050565b600061180182611814565b9050919050565b60008115159050919050565b600073ffffffffffffffffffffffffffffffffffffffff82169050919050565b6000819050919050565b600060ff82169050919050565b60005b8381101561186957808201518184015260208101905061184e565b83811115611878576000848401525b50505050565b6000600282049050600182168061189657607f821691505b602082108114156118aa576118a96118df565b5b50919050565b7f4e487b7100000000000000000000000000000000000000000000000000000000600052601160045260246000fd5b7f4e487b7100000000000000000000000000000000000000000000000000000000600052602260045260246000fd5b6000601f19601f8301169050919050565b7f45524332303a207472616e7366657220746f20746865207a65726f206164647260008201527f6573730000000000000000000000000000000000000000000000000000000000602082015250565b7f45524332303a206275726e20616d6f756e7420657863656564732062616c616e60008201527f6365000000000000000000000000000000000000000000000000000000000000602082015250565b7f45524332303a20617070726f766520746f20746865207a65726f20616464726560008201527f7373000000000000000000000000000000000000000000000000000000000000602082015250565b7f45524332303a20696e73756666696369656e7420616c6c6f77616e6365000000600082015250565b7f45524332303a207472616e7366657220616d6f756e742065786365656473206260008201527f616c616e63650000000000000000000000000000000000000000000000000000602082015250565b7f45524332303a206275726e2066726f6d20746865207a65726f2061646472657360008201527f7300000000000000000000000000000000000000000000000000000000000000602082015250565b7f45524332303a207472616e736665722066726f6d20746865207a65726f20616460008201527f6472657373000000000000000000000000000000000000000000000000000000602082015250565b7f45524332303a20617070726f76652066726f6d20746865207a65726f2061646460008201527f7265737300000000000000000000000000000000000000000000000000000000602082015250565b7f6163636573732064656e69656400000000000000000000000000000000000000600082015250565b7f45524332303a2064656372656173656420616c6c6f77616e63652062656c6f7760008201527f207a65726f000000000000000000000000000000000000000000000000000000602082015250565b7f45524332303a206d696e7420746f20746865207a65726f206164647265737300600082015250565b611c1b816117f6565b8114611c2657600080fd5b50565b611c3281611834565b8114611c3d57600080fd5b5056fea2646970667358221220d69f072db6a2bc7d1d7dfd5a159f0545c2ab82d2b4289a7c44d20bee569bff5264736f6c63430008040033",
  "linkReferences": {},
  "deployedLinkReferences": {}
}