{
  "_format": "hh-sol-artifact-1",
  "contractName": "BlockVote",
  "sourceName": "contracts/blockVote.sol",
  "abi": [
    {
      "inputs": [],
      "stateMutability": "nonpayable",
      "type": "constructor"
    },
    {
      "anonymous": false,
      "inputs": [
        {
          "indexed": true,
          "internalType": "address",
          "name": "owner",
          "type": "address"
        },
        {
          "indexed": true,
          "internalType": "address",
          "name": "spender",
          "type": "address"
        },
        {
          "indexed": false,
          "internalType": "uint256",
          "name": "value",
          "type": "uint256"
        }
      ],
      "name": "Approval",
      "type": "event"
    },
    {
      "anonymous": false,
      "inputs": [
        {
          "indexed": true,
          "internalType": "address",
          "name": "from",
          "type": "address"
        },
        {
          "indexed": true,
          "internalType": "address",
          "name": "to",
          "type": "address"
        },
        {
          "indexed": false,
          "internalType": "uint256",
          "name": "value",
          "type": "uint256"
        }
      ],
      "name": "Transfer",
      "type": "event"
    },
    {
      "inputs": [
        {
          "internalType": "uint256",
          "name": "",
          "type": "uint256"
        }
      ],
      "name": "allProposals",
      "outputs": [
        {
          "internalType": "uint256",
          "name": "pid",
          "type": "uint256"
        },
        {
          "internalType": "string",
          "name": "status",
          "type": "string"
        }
      ],
      "stateMutability": "view",
      "type": "function"
    },
    {
      "inputs": [
        {
          "internalType": "address",
          "name": "owner",
          "type": "address"
        },
        {
          "internalType": "address",
          "name": "spender",
          "type": "address"
        }
      ],
      "name": "allowance",
      "outputs": [
        {
          "internalType": "uint256",
          "name": "",
          "type": "uint256"
        }
      ],
      "stateMutability": "view",
      "type": "function"
    },
    {
      "inputs": [
        {
          "internalType": "address",
          "name": "spender",
          "type": "address"
        },
        {
          "internalType": "uint256",
          "name": "amount",
          "type": "uint256"
        }
      ],
      "name": "approve",
      "outputs": [
        {
          "internalType": "bool",
          "name": "",
          "type": "bool"
        }
      ],
      "stateMutability": "nonpayable",
      "type": "function"
    },
    {
      "inputs": [
        {
          "internalType": "address",
          "name": "account",
          "type": "address"
        }
      ],
      "name": "balanceOf",
      "outputs": [
        {
          "internalType": "uint256",
          "name": "",
          "type": "uint256"
        }
      ],
      "stateMutability": "view",
      "type": "function"
    },
    {
      "inputs": [
        {
          "internalType": "uint256",
          "name": "amount",
          "type": "uint256"
        }
      ],
      "name": "burnTokens",
      "outputs": [],
      "stateMutability": "nonpayable",
      "type": "function"
    },
    {
      "inputs": [
        {
          "internalType": "uint256",
          "name": "_pid",
          "type": "uint256"
        },
        {
          "internalType": "string",
          "name": "_status",
          "type": "string"
        }
      ],
      "name": "changeStatus",
      "outputs": [],
      "stateMutability": "nonpayable",
      "type": "function"
    },
    {
      "inputs": [
        {
          "internalType": "uint256",
          "name": "_pid",
          "type": "uint256"
        }
      ],
      "name": "checkProposalStatus",
      "outputs": [
        {
          "internalType": "string",
          "name": "",
          "type": "string"
        }
      ],
      "stateMutability": "view",
      "type": "function"
    },
    {
      "inputs": [
        {
          "internalType": "uint256",
          "name": "_pid",
          "type": "uint256"
        },
        {
          "internalType": "string",
          "name": "_status",
          "type": "string"
        }
      ],
      "name": "createNewProposal",
      "outputs": [],
      "stateMutability": "nonpayable",
      "type": "function"
    },
    {
      "inputs": [],
      "name": "currentOwner",
      "outputs": [
        {
          "internalType": "address",
          "name": "",
          "type": "address"
        }
      ],
      "stateMutability": "view",
      "type": "function"
    },
    {
      "inputs": [],
      "name": "decimals",
      "outputs": [
        {
          "internalType": "uint8",
          "name": "",
          "type": "uint8"
        }
      ],
      "stateMutability": "view",
      "type": "function"
    },
    {
      "inputs": [
        {
          "internalType": "address",
          "name": "spender",
          "type": "address"
        },
        {
          "internalType": "uint256",
          "name": "subtractedValue",
          "type": "uint256"
        }
      ],
      "name": "decreaseAllowance",
      "outputs": [
        {
          "internalType": "bool",
          "name": "",
          "type": "bool"
        }
      ],
      "stateMutability": "nonpayable",
      "type": "function"
    },
    {
      "inputs": [
        {
          "internalType": "address",
          "name": "spender",
          "type": "address"
        },
        {
          "internalType": "uint256",
          "name": "addedValue",
          "type": "uint256"
        }
      ],
      "name": "increaseAllowance",
      "outputs": [
        {
          "internalType": "bool",
          "name": "",
          "type": "bool"
        }
      ],
      "stateMutability": "nonpayable",
      "type": "function"
    },
    {
      "inputs": [
        {
          "internalType": "address",
          "name": "account",
          "type": "address"
        },
        {
          "internalType": "uint256",
          "name": "amount",
          "type": "uint256"
        }
      ],
      "name": "mintTokens",
      "outputs": [],
      "stateMutability": "nonpayable",
      "type": "function"
    },
    {
      "inputs": [],
      "name": "name",
      "outputs": [
        {
          "internalType": "string",
          "name": "",
          "type": "string"
        }
      ],
      "stateMutability": "view",
      "type": "function"
    },
    {
      "inputs": [],
      "name": "owner",
      "outputs": [
        {
          "internalType": "address",
          "name": "",
          "type": "address"
        }
      ],
      "stateMutability": "view",
      "type": "function"
    },
    {
      "inputs": [],
      "name": "symbol",
      "outputs": [
        {
          "internalType": "string",
          "name": "",
          "type": "string"
        }
      ],
      "stateMutability": "view",
      "type": "function"
    },
    {
      "inputs": [],
      "name": "totalProp",
      "outputs": [
        {
          "internalType": "uint256",
          "name": "",
          "type": "uint256"
        }
      ],
      "stateMutability": "view",
      "type": "function"
    },
    {
      "inputs": [],
      "name": "totalProposals",
      "outputs": [
        {
          "internalType": "uint256",
          "name": "",
          "type": "uint256"
        }
      ],
      "stateMutability": "view",
      "type": "function"
    },
    {
      "inputs": [],
      "name": "totalSupply",
      "outputs": [
        {
          "internalType": "uint256",
          "name": "",
          "type": "uint256"
        }
      ],
      "stateMutability": "view",
      "type": "function"
    },
    {
      "inputs": [],
      "name": "totalTokenAmount",
      "outputs": [
        {
          "internalType": "uint256",
          "name": "",
          "type": "uint256"
        }
      ],
      "stateMutability": "view",
      "type": "function"
    },
    {
      "inputs": [],
      "name": "totalTokenSupply",
      "outputs": [
        {
          "internalType": "uint256",
          "name": "",
          "type": "uint256"
        }
      ],
      "stateMutability": "view",
      "type": "function"
    },
    {
      "inputs": [
        {
          "internalType": "address",
          "name": "to",
          "type": "address"
        },
        {
          "internalType": "uint256",
          "name": "amount",
          "type": "uint256"
        }
      ],
      "name": "transfer",
      "outputs": [
        {
          "internalType": "bool",
          "name": "",
          "type": "bool"
        }
      ],
      "stateMutability": "nonpayable",
      "type": "function"
    },
    {
      "inputs": [
        {
          "internalType": "address",
          "name": "from",
          "type": "address"
        },
        {
          "internalType": "address",
          "name": "to",
          "type": "address"
        },
        {
          "internalType": "uint256",
          "name": "amount",
          "type": "uint256"
        }
      ],
      "name": "transferFrom",
      "outputs": [
        {
          "internalType": "bool",
          "name": "",
          "type": "bool"
        }
      ],
      "stateMutability": "nonpayable",
      "type": "function"
    },
    {
      "inputs": [
        {
          "internalType": "address",
          "name": "account",
          "type": "address"
        }
      ],
      "name": "transferOwnership",
      "outputs": [],
      "stateMutability": "nonpayable",
      "type": "function"
    },
    {
      "inputs": [],
      "name": "userBalance",
      "outputs": [
        {
          "internalType": "uint256",
          "name": "",
          "type": "uint256"
        }
      ],
      "stateMutability": "view",
      "type": "function"
    }
  ],
  "bytecode": "0x6080604052600060065560006008553480156200001b57600080fd5b506040518060400160405280601081526020017f426c6f636b20566f746520546f6b656e000000000000000000000000000000008152506040518060400160405280600381526020017f42565400000000000000000000000000000000000000000000000000000000008152508160039080519060200190620000a092919062000103565b508060049080519060200190620000b992919062000103565b50505033600560006101000a81548173ffffffffffffffffffffffffffffffffffffffff021916908373ffffffffffffffffffffffffffffffffffffffff16021790555062000218565b8280546200011190620001b3565b90600052602060002090601f01602090048101928262000135576000855562000181565b82601f106200015057805160ff191683800117855562000181565b8280016001018555821562000181579182015b828111156200018057825182559160200191906001019062000163565b5b50905062000190919062000194565b5090565b5b80821115620001af57600081600090555060010162000195565b5090565b60006002820490506001821680620001cc57607f821691505b60208210811415620001e357620001e2620001e9565b5b50919050565b7f4e487b7100000000000000000000000000000000000000000000000000000000600052602260045260246000fd5b6123e380620002286000396000f3fe608060405234801561001057600080fd5b50600436106101735760003560e01c80638da5cb5b116100de578063a9059cbb11610097578063bf15276511610071578063bf15276514610479578063dd62ed3e14610497578063f0dda65c146104c7578063f2fde38b146104e357610173565b8063a9059cbb1461040d578063b162c5db1461043d578063b387ef921461045b57610173565b80638da5cb5b14610322578063938351b81461034057806395d89b4114610371578063a201fac91461038f578063a457c2d7146103bf578063a78d80fc146103ef57610173565b806324077b871161013057806324077b8714610250578063313ce5671461026c578063395093511461028a5780634558593e146102ba5780636d1b229d146102d657806370a08231146102f257610173565b80630337b3aa1461017857806306fdde0314610196578063095ea7b3146101b457806318160ddd146101e45780631ca8b6cb1461020257806323b872dd14610220575b600080fd5b6101806104ff565b60405161018d9190611de5565b60405180910390f35b61019e610509565b6040516101ab9190611c43565b60405180910390f35b6101ce60048036038101906101c99190611937565b61059b565b6040516101db9190611c28565b60405180910390f35b6101ec6105be565b6040516101f99190611de5565b60405180910390f35b61020a6105c8565b6040516102179190611de5565b60405180910390f35b61023a600480360381019061023591906118e8565b6105ce565b6040516102479190611c28565b60405180910390f35b61026a6004803603810190610265919061199c565b6105fd565b005b61027461075a565b6040516102819190611e30565b60405180910390f35b6102a4600480360381019061029f9190611937565b610763565b6040516102b19190611c28565b60405180910390f35b6102d460048036038101906102cf919061199c565b61080d565b005b6102f060048036038101906102eb9190611973565b6108c8565b005b61030c60048036038101906103079190611883565b6108ee565b6040516103199190611de5565b60405180910390f35b61032a610936565b6040516103379190611c0d565b60405180910390f35b61035a60048036038101906103559190611973565b61095c565b604051610368929190611e00565b60405180910390f35b610379610a08565b6040516103869190611c43565b60405180910390f35b6103a960048036038101906103a49190611973565b610a9a565b6040516103b69190611c43565b60405180910390f35b6103d960048036038101906103d49190611937565b610b42565b6040516103e69190611c28565b60405180910390f35b6103f7610c2c565b6040516104049190611de5565b60405180910390f35b61042760048036038101906104229190611937565b610c36565b6040516104349190611c28565b60405180910390f35b610445610c59565b6040516104529190611de5565b60405180910390f35b610463610c5f565b6040516104709190611c0d565b60405180910390f35b610481610c89565b60405161048e9190611de5565b60405180910390f35b6104b160048036038101906104ac91906118ac565b610c99565b6040516104be9190611de5565b60405180910390f35b6104e160048036038101906104dc9190611937565b610d20565b005b6104fd60048036038101906104f89190611883565b610dd7565b005b6000600654905090565b60606003805461051890611f79565b80601f016020809104026020016040519081016040528092919081815260200182805461054490611f79565b80156105915780601f1061056657610100808354040283529160200191610591565b820191906000526020600020905b81548152906001019060200180831161057457829003601f168201915b5050505050905090565b6000806105a6610eab565b90506105b3818585610eb3565b600191505092915050565b6000600254905090565b60065481565b6000806105d9610eab565b90506105e685828561107e565b6105f185858561110a565b60019150509392505050565b6000610607610c89565b11806106605750600560009054906101000a900473ffffffffffffffffffffffffffffffffffffffff1673ffffffffffffffffffffffffffffffffffffffff163373ffffffffffffffffffffffffffffffffffffffff16145b61069f576040517f08c379a000000000000000000000000000000000000000000000000000000000815260040161069690611d05565b60405180910390fd5b600860008154809291906106b290611fab565b91905055506106bf6116cc565b8381600001818152505082828080601f016020809104026020016040519081016040528093929190818152602001838380828437600081840152601f19601f82011690508083019250505050505050816020018190525080600760008681526020019081526020016000206000820151816000015560208201518160010190805190602001906107509291906116e6565b5090505050505050565b60006012905090565b60008061076e610eab565b9050610802818585600160008673ffffffffffffffffffffffffffffffffffffffff1673ffffffffffffffffffffffffffffffffffffffff16815260200190815260200160002060008973ffffffffffffffffffffffffffffffffffffffff1673ffffffffffffffffffffffffffffffffffffffff168152602001908152602001600020546107fd9190611e67565b610eb3565b600191505092915050565b600560009054906101000a900473ffffffffffffffffffffffffffffffffffffffff1673ffffffffffffffffffffffffffffffffffffffff163373ffffffffffffffffffffffffffffffffffffffff161461089d576040517f08c379a000000000000000000000000000000000000000000000000000000000815260040161089490611d85565b60405180910390fd5b81816007600086815260200190815260200160002060010191906108c292919061176c565b50505050565b6108d2338261138b565b80600660008282546108e49190611ebd565b9250508190555050565b60008060008373ffffffffffffffffffffffffffffffffffffffff1673ffffffffffffffffffffffffffffffffffffffff168152602001908152602001600020549050919050565b600560009054906101000a900473ffffffffffffffffffffffffffffffffffffffff1681565b600760205280600052604060002060009150905080600001549080600101805461098590611f79565b80601f01602080910402602001604051908101604052809291908181526020018280546109b190611f79565b80156109fe5780601f106109d3576101008083540402835291602001916109fe565b820191906000526020600020905b8154815290600101906020018083116109e157829003601f168201915b5050505050905082565b606060048054610a1790611f79565b80601f0160208091040260200160405190810160405280929190818152602001828054610a4390611f79565b8015610a905780601f10610a6557610100808354040283529160200191610a90565b820191906000526020600020905b815481529060010190602001808311610a7357829003601f168201915b5050505050905090565b6060600760008381526020019081526020016000206001018054610abd90611f79565b80601f0160208091040260200160405190810160405280929190818152602001828054610ae990611f79565b8015610b365780601f10610b0b57610100808354040283529160200191610b36565b820191906000526020600020905b815481529060010190602001808311610b1957829003601f168201915b50505050509050919050565b600080610b4d610eab565b90506000600160008373ffffffffffffffffffffffffffffffffffffffff1673ffffffffffffffffffffffffffffffffffffffff16815260200190815260200160002060008673ffffffffffffffffffffffffffffffffffffffff1673ffffffffffffffffffffffffffffffffffffffff16815260200190815260200160002054905083811015610c13576040517f08c379a0000000000000000000000000000000000000000000000000000000008152600401610c0a90611da5565b60405180910390fd5b610c208286868403610eb3565b60019250505092915050565b6000600854905090565b600080610c41610eab565b9050610c4e81858561110a565b600191505092915050565b60085481565b6000600560009054906101000a900473ffffffffffffffffffffffffffffffffffffffff16905090565b6000610c94336108ee565b905090565b6000600160008473ffffffffffffffffffffffffffffffffffffffff1673ffffffffffffffffffffffffffffffffffffffff16815260200190815260200160002060008373ffffffffffffffffffffffffffffffffffffffff1673ffffffffffffffffffffffffffffffffffffffff16815260200190815260200160002054905092915050565b600560009054906101000a900473ffffffffffffffffffffffffffffffffffffffff1673ffffffffffffffffffffffffffffffffffffffff163373ffffffffffffffffffffffffffffffffffffffff1614610db0576040517f08c379a0000000000000000000000000000000000000000000000000000000008152600401610da790611d85565b60405180910390fd5b610dba8282611562565b8060066000828254610dcc9190611e67565b925050819055505050565b600560009054906101000a900473ffffffffffffffffffffffffffffffffffffffff1673ffffffffffffffffffffffffffffffffffffffff163373ffffffffffffffffffffffffffffffffffffffff1614610e67576040517f08c379a0000000000000000000000000000000000000000000000000000000008152600401610e5e90611d85565b60405180910390fd5b80600560006101000a81548173ffffffffffffffffffffffffffffffffffffffff021916908373ffffffffffffffffffffffffffffffffffffffff16021790555050565b600033905090565b600073ffffffffffffffffffffffffffffffffffffffff168373ffffffffffffffffffffffffffffffffffffffff161415610f23576040517f08c379a0000000000000000000000000000000000000000000000000000000008152600401610f1a90611d65565b60405180910390fd5b600073ffffffffffffffffffffffffffffffffffffffff168273ffffffffffffffffffffffffffffffffffffffff161415610f93576040517f08c379a0000000000000000000000000000000000000000000000000000000008152600401610f8a90611ca5565b60405180910390fd5b80600160008573ffffffffffffffffffffffffffffffffffffffff1673ffffffffffffffffffffffffffffffffffffffff16815260200190815260200160002060008473ffffffffffffffffffffffffffffffffffffffff1673ffffffffffffffffffffffffffffffffffffffff168152602001908152602001600020819055508173ffffffffffffffffffffffffffffffffffffffff168373ffffffffffffffffffffffffffffffffffffffff167f8c5be1e5ebec7d5bd14f71427d1e84f3dd0314c0f7b2291e5b200ac8c7c3b925836040516110719190611de5565b60405180910390a3505050565b600061108a8484610c99565b90507fffffffffffffffffffffffffffffffffffffffffffffffffffffffffffffffff811461110457818110156110f6576040517f08c379a00000000000000000000000000000000000000000000000000000000081526004016110ed90611cc5565b60405180910390fd5b6111038484848403610eb3565b5b50505050565b600073ffffffffffffffffffffffffffffffffffffffff168373ffffffffffffffffffffffffffffffffffffffff16141561117a576040517f08c379a000000000000000000000000000000000000000000000000000000000815260040161117190611d45565b60405180910390fd5b600073ffffffffffffffffffffffffffffffffffffffff168273ffffffffffffffffffffffffffffffffffffffff1614156111ea576040517f08c379a00000000000000000000000000000000000000000000000000000000081526004016111e190611c65565b60405180910390fd5b6111f58383836116c2565b60008060008573ffffffffffffffffffffffffffffffffffffffff1673ffffffffffffffffffffffffffffffffffffffff1681526020019081526020016000205490508181101561127b576040517f08c379a000000000000000000000000000000000000000000000000000000000815260040161127290611ce5565b60405180910390fd5b8181036000808673ffffffffffffffffffffffffffffffffffffffff1673ffffffffffffffffffffffffffffffffffffffff16815260200190815260200160002081905550816000808573ffffffffffffffffffffffffffffffffffffffff1673ffffffffffffffffffffffffffffffffffffffff168152602001908152602001600020600082825461130e9190611e67565b925050819055508273ffffffffffffffffffffffffffffffffffffffff168473ffffffffffffffffffffffffffffffffffffffff167fddf252ad1be2c89b69c2b068fc378daa952ba7f163c4a11628f55a4df523b3ef846040516113729190611de5565b60405180910390a36113858484846116c7565b50505050565b600073ffffffffffffffffffffffffffffffffffffffff168273ffffffffffffffffffffffffffffffffffffffff1614156113fb576040517f08c379a00000000000000000000000000000000000000000000000000000000081526004016113f290611d25565b60405180910390fd5b611407826000836116c2565b60008060008473ffffffffffffffffffffffffffffffffffffffff1673ffffffffffffffffffffffffffffffffffffffff1681526020019081526020016000205490508181101561148d576040517f08c379a000000000000000000000000000000000000000000000000000000000815260040161148490611c85565b60405180910390fd5b8181036000808573ffffffffffffffffffffffffffffffffffffffff1673ffffffffffffffffffffffffffffffffffffffff1681526020019081526020016000208190555081600260008282546114e49190611ebd565b92505081905550600073ffffffffffffffffffffffffffffffffffffffff168373ffffffffffffffffffffffffffffffffffffffff167fddf252ad1be2c89b69c2b068fc378daa952ba7f163c4a11628f55a4df523b3ef846040516115499190611de5565b60405180910390a361155d836000846116c7565b505050565b600073ffffffffffffffffffffffffffffffffffffffff168273ffffffffffffffffffffffffffffffffffffffff1614156115d2576040517f08c379a00000000000000000000000000000000000000000000000000000000081526004016115c990611dc5565b60405180910390fd5b6115de600083836116c2565b80600260008282546115f09190611e67565b92505081905550806000808473ffffffffffffffffffffffffffffffffffffffff1673ffffffffffffffffffffffffffffffffffffffff16815260200190815260200160002060008282546116459190611e67565b925050819055508173ffffffffffffffffffffffffffffffffffffffff16600073ffffffffffffffffffffffffffffffffffffffff167fddf252ad1be2c89b69c2b068fc378daa952ba7f163c4a11628f55a4df523b3ef836040516116aa9190611de5565b60405180910390a36116be600083836116c7565b5050565b505050565b505050565b604051806040016040528060008152602001606081525090565b8280546116f290611f79565b90600052602060002090601f016020900481019282611714576000855561175b565b82601f1061172d57805160ff191683800117855561175b565b8280016001018555821561175b579182015b8281111561175a57825182559160200191906001019061173f565b5b50905061176891906117f2565b5090565b82805461177890611f79565b90600052602060002090601f01602090048101928261179a57600085556117e1565b82601f106117b357803560ff19168380011785556117e1565b828001600101855582156117e1579182015b828111156117e05782358255916020019190600101906117c5565b5b5090506117ee91906117f2565b5090565b5b8082111561180b5760008160009055506001016117f3565b5090565b60008135905061181e8161237f565b92915050565b60008083601f84011261183657600080fd5b8235905067ffffffffffffffff81111561184f57600080fd5b60208301915083600182028301111561186757600080fd5b9250929050565b60008135905061187d81612396565b92915050565b60006020828403121561189557600080fd5b60006118a38482850161180f565b91505092915050565b600080604083850312156118bf57600080fd5b60006118cd8582860161180f565b92505060206118de8582860161180f565b9150509250929050565b6000806000606084860312156118fd57600080fd5b600061190b8682870161180f565b935050602061191c8682870161180f565b925050604061192d8682870161186e565b9150509250925092565b6000806040838503121561194a57600080fd5b60006119588582860161180f565b92505060206119698582860161186e565b9150509250929050565b60006020828403121561198557600080fd5b60006119938482850161186e565b91505092915050565b6000806000604084860312156119b157600080fd5b60006119bf8682870161186e565b935050602084013567ffffffffffffffff8111156119dc57600080fd5b6119e886828701611824565b92509250509250925092565b6119fd81611ef1565b82525050565b611a0c81611f03565b82525050565b6000611a1d82611e4b565b611a278185611e56565b9350611a37818560208601611f46565b611a4081612052565b840191505092915050565b6000611a58602383611e56565b9150611a6382612063565b604082019050919050565b6000611a7b602283611e56565b9150611a86826120b2565b604082019050919050565b6000611a9e602283611e56565b9150611aa982612101565b604082019050919050565b6000611ac1601d83611e56565b9150611acc82612150565b602082019050919050565b6000611ae4602683611e56565b9150611aef82612179565b604082019050919050565b6000611b07600b83611e56565b9150611b12826121c8565b602082019050919050565b6000611b2a602183611e56565b9150611b35826121f1565b604082019050919050565b6000611b4d602583611e56565b9150611b5882612240565b604082019050919050565b6000611b70602483611e56565b9150611b7b8261228f565b604082019050919050565b6000611b93600d83611e56565b9150611b9e826122de565b602082019050919050565b6000611bb6602583611e56565b9150611bc182612307565b604082019050919050565b6000611bd9601f83611e56565b9150611be482612356565b602082019050919050565b611bf881611f2f565b82525050565b611c0781611f39565b82525050565b6000602082019050611c2260008301846119f4565b92915050565b6000602082019050611c3d6000830184611a03565b92915050565b60006020820190508181036000830152611c5d8184611a12565b905092915050565b60006020820190508181036000830152611c7e81611a4b565b9050919050565b60006020820190508181036000830152611c9e81611a6e565b9050919050565b60006020820190508181036000830152611cbe81611a91565b9050919050565b60006020820190508181036000830152611cde81611ab4565b9050919050565b60006020820190508181036000830152611cfe81611ad7565b9050919050565b60006020820190508181036000830152611d1e81611afa565b9050919050565b60006020820190508181036000830152611d3e81611b1d565b9050919050565b60006020820190508181036000830152611d5e81611b40565b9050919050565b60006020820190508181036000830152611d7e81611b63565b9050919050565b60006020820190508181036000830152611d9e81611b86565b9050919050565b60006020820190508181036000830152611dbe81611ba9565b9050919050565b60006020820190508181036000830152611dde81611bcc565b9050919050565b6000602082019050611dfa6000830184611bef565b92915050565b6000604082019050611e156000830185611bef565b8181036020830152611e278184611a12565b90509392505050565b6000602082019050611e456000830184611bfe565b92915050565b600081519050919050565b600082825260208201905092915050565b6000611e7282611f2f565b9150611e7d83611f2f565b9250827fffffffffffffffffffffffffffffffffffffffffffffffffffffffffffffffff03821115611eb257611eb1611ff4565b5b828201905092915050565b6000611ec882611f2f565b9150611ed383611f2f565b925082821015611ee657611ee5611ff4565b5b828203905092915050565b6000611efc82611f0f565b9050919050565b60008115159050919050565b600073ffffffffffffffffffffffffffffffffffffffff82169050919050565b6000819050919050565b600060ff82169050919050565b60005b83811015611f64578082015181840152602081019050611f49565b83811115611f73576000848401525b50505050565b60006002820490506001821680611f9157607f821691505b60208210811415611fa557611fa4612023565b5b50919050565b6000611fb682611f2f565b91507fffffffffffffffffffffffffffffffffffffffffffffffffffffffffffffffff821415611fe957611fe8611ff4565b5b600182019050919050565b7f4e487b7100000000000000000000000000000000000000000000000000000000600052601160045260246000fd5b7f4e487b7100000000000000000000000000000000000000000000000000000000600052602260045260246000fd5b6000601f19601f8301169050919050565b7f45524332303a207472616e7366657220746f20746865207a65726f206164647260008201527f6573730000000000000000000000000000000000000000000000000000000000602082015250565b7f45524332303a206275726e20616d6f756e7420657863656564732062616c616e60008201527f6365000000000000000000000000000000000000000000000000000000000000602082015250565b7f45524332303a20617070726f766520746f20746865207a65726f20616464726560008201527f7373000000000000000000000000000000000000000000000000000000000000602082015250565b7f45524332303a20696e73756666696369656e7420616c6c6f77616e6365000000600082015250565b7f45524332303a207472616e7366657220616d6f756e742065786365656473206260008201527f616c616e63650000000000000000000000000000000000000000000000000000602082015250565b7f6e6f7420616c6c6f776564000000000000000000000000000000000000000000600082015250565b7f45524332303a206275726e2066726f6d20746865207a65726f2061646472657360008201527f7300000000000000000000000000000000000000000000000000000000000000602082015250565b7f45524332303a207472616e736665722066726f6d20746865207a65726f20616460008201527f6472657373000000000000000000000000000000000000000000000000000000602082015250565b7f45524332303a20617070726f76652066726f6d20746865207a65726f2061646460008201527f7265737300000000000000000000000000000000000000000000000000000000602082015250565b7f6163636573732064656e69656400000000000000000000000000000000000000600082015250565b7f45524332303a2064656372656173656420616c6c6f77616e63652062656c6f7760008201527f207a65726f000000000000000000000000000000000000000000000000000000602082015250565b7f45524332303a206d696e7420746f20746865207a65726f206164647265737300600082015250565b61238881611ef1565b811461239357600080fd5b50565b61239f81611f2f565b81146123aa57600080fd5b5056fea2646970667358221220a5a0b791af4dfc76aac8af2df43d7cd3d587187c0a08e73803856102cb0d919464736f6c63430008040033",
  "linkReferences": {},
  "deployedLinkReferences": {}
}